:1000000012C02CC02BC02AC029C028C027C026C0BF
:1000100025C03FC323C022C021C020C01FC01EC0B6
:100020001DC01CC01BC011241FBECFE5D4E0DEBF25
:10003000CDBF10E0A0E6B0E0EAE3F7E002C0059033
:100040000D92A43AB107D9F720E0A4EAB0E001C0CC
:100050001D92A63AB207E1F742D36DC3D1CF919872
:10006000611102C0929819C0929A17C09498AB017E
:10007000022E02C0559547950A94E2F7482359236A
:10008000452B11F0939A01C09398949A2F5F3F4F9C
:100090002830310559F7919A089520E030E060E862
:1000A00070E090E0E3CF909A919A89EF90E0019709
:1000B000F1F700C00000909889EF90E00197F1F708
:1000C00000C00000909A0895CF93DF93C82F862F29
:1000D000D42F60E08058C3DF60E080E48D0FBFDF85
:1000E00061E08C2FBCDFDF91CF9108951F93CF93F8
:1000F000DF93959AD8DF60E081E2B1DF60E083E1D1
:10010000AEDF60E086E0ABDF60E088EBA8DF60E0B8
:1001100080E2A5DF60E088E0A2DF60E08CE09FDFA6
:10012000D0E010E00AC04C2F6D2F812FCDDFCF5FC4
:10013000C630C9F7DF5FD43511F0C12FF4CFDF919E
:10014000CF911F91089588EC82BF85E083BF89B766
:10015000816089BF08957F928F929F92AF92BF92E4
:10016000CF92DF92EF92FF920F931F93CF93DF9383
:1001700092E5899FC02C1124BB24B394BC0CC1E030
:10018000D0E0082F10E00B591F4F6894EE24E3F8DD
:10019000F12CAA24AA94812C912CF8016081462F7D
:1001A000469546954695842F90E08C179D07E1F57E
:1001B000677070E0CB010196DA2C282D392DDD0C0B
:1001C0002F5F3F4F28173907D4F3F701E61BF70BD2
:1001D0001E161F0654F47A2C282D392D76942F5F85
:1001E0003F4F2E173F07D1F701C07A2C6C2D8D2D74
:1001F0006BDFF80140814695469546954F5F6C2D23
:10020000872D62DFF80140814695469546956B2D16
:100210008D2D5ADFF80140814695469546954F5FF2
:100220006B2D872D51DF0CC001968C179D0741F077
:100230004C2F6C2D80E048DF4C2F6B2D80E044DF8D
:100240002196C630D10509F0A8CFDF91CF911F913B
:100250000F91FF90EF90DF90CF90BF90AF909F9065
:100260008F907F9008955F926F927F928F929F926E
:10027000AF92BF92CF92DF92EF92FF920F931F93B4
:10028000CF93DF93CC24C394D12CC4E6D0E0689400
:10029000EE24E3F8F12CA12C03E610E00F2EF7E09A
:1002A0009F2EF02D712C812C4881842F8695869568
:1002B000869590E08C159D0509F07AC0477050E056
:1002C000CA010196B92C272D382DBB0C2F5F3F4F4B
:1002D00028173907D4F3C701841B950BAC011816F6
:1002E00019060CF06EC0692C272D382D66942F5FEF
:1002F0003F4F24173507D1F765C04881469546958D
:100300004695F8016081650D8B2DDEDE48814695AE
:10031000469546954F5FF8016081650D862DD4DEC8
:100320005394F3E05F12E9CFF80160816330F0F09D
:1003300048814695469546954F5F61508A2DC4DEAB
:100340004881469546954695F801608161508A2D11
:10035000BBDE8881803150F08695869586954FEF7B
:10036000480FF801608161508A2DAEDEF80160818E
:100370006F34F0F448814695469546954F5F6D5F22
:100380008A2DA2DE4881469546954695F801608102
:100390006D5F8A2D99DE8881803150F08695869533
:1003A00086954FEF480FF80160816D5F8A2D8CDED6
:1003B000FFEFCF1ADF0A86E0C816D10409F074CF28
:1003C00003C0692C5A2C99CFDF91CF911F910F91C7
:1003D000FF90EF90DF90CF90BF90AF909F908F9065
:1003E0007F906F905F9008953EDF80E0B4DE81E003
:1003F000B2DE0895EF92FF920F931F93CF93DF9396
:10040000C0E0D0E00F2EF4EAEF2EF0E0FF2EF02D4A
:1004100005EA10E06C2F6F5FF701808190E0FC012E
:10042000EE0FFF1F8E0F9F1FFC01EE0FFF1FEC0F43
:10043000FD1FE959FF4F40E0808146DE6C2F625B73
:10044000F801808190E0FC01EE0FFF1F8E0F9F1FCF
:10045000FC01EE0FFF1FEC0FFD1FE959FF4F40E0BD
:10046000808132DE2196C530D105A1F6BDDFDF9156
:10047000CF911F910F91FF90EF9008951F93CF930D
:10048000DF938CE180936500809366008093630026
:100490008AE28093640081E080936200D1E010E002
:1004A0000AC04D2F6C2F812F0FDECF5FC335C9F7E8
:1004B000DF5FD63011F0C12FF4CF9CDFDF91CF91F9
:1004C0001F910895E82FF0E0EC55FF4F80818F5F7A
:1004D00080838A3021F41092A4001092A500CEDF10
:1004E00008956AE070E0282F30E0F0E0E0E044E6B4
:1004F00050E0421B530BC19A1216130654F48F2F6F
:100500009E2FA3E0AA95F1F70000019682179307AA
:10051000C4F3C1981416150654F48F2F9E2FA3E030
:10052000AA95F1F70000019684179507C1F761506D
:10053000710961157105F9F6089530916000E3E6DF
:10054000F0E09081930F908320916100E4E6F0E069
:100550008081820F8083923011F0903519F43195AB
:1005600030936000883011F08D3299F421952093FA
:10057000610080916200803518F4865F809362008C
:1005800082E088BB83EC99E00197F1F700C000009E
:1005900018BA809163008230A1F48091640090E0E9
:1005A0002091650030E0A901415051098417950759
:1005B0002CF0295F3F4F28173907E4F481E082DFF0
:1005C00008958F34D1F48091640090E0209166000A
:1005D00030E0A90141505109841795072CF0295F9B
:1005E0003F4F281739075CF480E06CDF08958AE0FC
:1005F00078DF089582E375DF08958035C1F30895AB
:1006000020916500822F90E0019688972CF49899AC
:1006100003C02F5F2093650020916500822F90E03A
:10062000019707972CF0999903C0215020936500FA
:100630000895809163008F3158F18091600081307E
:1006400039F58091640090E060916600262F30E0DB
:10065000A9014C5F5F4F4817590744F42F5F3F4F84
:10066000283231051CF46F5F60936600609166006C
:10067000262F30E0A9014C5F5F4F8417950744F4A3
:1006800021503109273031051CF06150609366001C
:1006900008951F920F920FB60F9211242F933F933C
:1006A0004F935F936F937F938F939F93AF93BF937A
:1006B000EF93FF93A5DFBDDF88EC82BFFF91EF9141
:1006C000BF91AF919F918F917F916F915F914F916A
:1006D0003F912F910F900FBE0F901F90189514BA55
:1006E0008FEF87BB85BB18BA81BB2DDDFFDCC0E077
:1006F00040E06C2F8FEFE8DCCF5FC435C9F778940A
:1007000080E090E0C6E4D0E000E010E007C0E9EF50
:10071000F0E03197F1F700C00000019620916200EF
:10072000AE01421B5109841795078CF306DF62DE88
:0A073000802F912FF3CFF894FFCF34
:10073A00FF01011C2A1C1C815E6E7681FF7B7D00F5
:10074A007F7FFF3D5E6E7679FFBD7E767689FFC735
:10075A00DBDD00DFFFB07676768EFF817676768DEA
:10076A00FFFEFE06FAFCFF8976767689FFB16E6E89
:04077A006E81FF008D
:00000001FF
